12345678JOHN DOE                    C05000000010000000A
87654321JANE SMITH                  S02500000005000000A
11223344ACME CORPORATION           B10000000020000000A
44332211BOB JOHNSON                 C00100000001000000I
55667788ALICE WONG                  S07500000015000000A
99887766XYZ INDUSTRIES              B20000000030000000S
22334455MIKE DAVIS                  C01000000002000000A
33445566SARA WILSON                 S00500000001500000A
